:0200000407FCF7
:100000008045FC07BD01FC07C501FC07DD01FC07BD
:1000100000000000000000000000000000000000E0
:10002000000000000000000000000000F501FC07D7
:100030000000000000000000F701FC07F901FC07C8
:10004000C91AFC07071BFC07A526F0071919FC07AE
:10005000FB01FC07FB01FC073516FC07FB01FC0755
:10006000FB01FC07FB01FC07C313FC07C713FC07DC
:10007000CB13FC07CF13FC07D313FC07FB01FC07D2
:100080000D14FC07FB01FC07FB01FC07FB01FC074F
:10009000FB01FC07FB01FC07FB01FC07FB01FC0764
:0800A000000000008E070E00B5
:0200000407FCF7
:100110000448854603F03EFC004800475903FC07AD
:10012000C046C0468045FC0710B51F480189C90874
:10013000C9000181018A1D4CC90713D0808800289D
:1001400010D11B481949428820310A8182888A804F
:10015000C2880A80618AFF22813200889143C001EF
:10016000014361821349062008800F2000F00EF839
:10017000012000F00BF8002000F008F8608904214D
:10018000884360810020208062B610BD002809DB12
:10019000C106C90E0120884007490860BFF34F8F90
:1001A000BFF36F8F70470000000300500000005045
:1001B000A000FC070034005080E100E00F488047B9
:1001C0000F48004704207146084203D0EFF309802E
:1001D0000C490847EFF308800A4908470420714694
:1001E000084203D0EFF3098007490847EFF308807E
:1001F00005490847FEE7FEE7FEE7FEE72901FC07A1
:100200001101FC079902FC070D02FC0710B504461A
:100210001E484089C00508D51B2000F093FF1B48ED
:1002200060300188012211430180052212071088E5
:10023000518A0007800FFF2381339943C001014396
:10024000518213492068086060684860A06888602F
:10025000E068C8602069086160694861A0698861D8
:10026000E069C8610C620B48836A4B62C36A8B62A7
:10027000036BCB62C36B0B63436B4B63806B886315
:10028000908AC00601D500BE10BDFEE720000050D8
:100290000090FC0700ED00E070B5052504462D0731
:1002A000288A04210843288228894021084328817C
:1002B00024480126066024490820088023484089F4
:1002C000C00507D51B2000F03DFF204860300188A5
:1002D000314301802888698A0007800FFF2281321C
:1002E0009143C0010143698219492068086160682F
:1002F0004861A0688861E068C86120690862606937
:100300004862A0698862E069C8620C631148826A29
:100310004A63C26A8A63026BCA63C26B0C4940318A
:100320000A60426B4A60806B8860A88AC00608D564
:1003300000BE688A012180088000C90308436882E2
:1003400070BDFEE780E200E0003300502000005066
:100350004090FC0700ED00E008B500F0C6F800F0A2
:100360003DFB01250026052424070CE0284600F06B
:10037000DFF90421684600964DF7E0FB002817D00E
:1003800000F099FA14E02089000611D501208007B9
:10039000006B00040CD49D480078C00708D15DF7BD
:1003A0002CF8002000F0C4F9994800780428DDD02A
:1003B00000F0C4FA0028E6D072B601F047FC042829
:1003C00006D002280BD0032809D0012814D018E049
:1003D00090480078012801D0032000E0022000F0BE
:1003E0004EF8A08AC00602D58B490820088030BF8D
:1003F000A08A00F008F804E000F0A0FA002800D07D
:1004000030BF62B6BFE710B500F07CF9834902281F
:100410000CD105200007408AC005820F8048028069
:100420000A8942808A8882800A88C280488960213D
:10043000C00500280ADB794860300088C00705D075
:10044000764A2032508A884320305082754882880C
:100450008A43203282807448C078002807D07348CD
:10046000006801898AB2416803205CF727F902F02D
:100470001CF96F48016904229143016110BD38B530
:100480006946052408702407218A05460422114381
:10049000218200F063F8614841896022C905002982
:1004A00005DB5E4B2033598A9143403159825D49C7
:1004B0008B88934340338B80022D01D0032D13D1C1
:1004C0008188490849008180002000900099491CDA
:1004D00000911429FADB618989088900491C61812E
:1004E00061894906FCD5608038BDF0B55148524954
:1004F00005230127514A884201D31C4604E090425B
:1005000001D33C4600E000244D4D4E4E4648AD1907
:100510004D4E8470AD190126B6034560B54201D831
:10052000142500E000252540484C45708C4213D22C
:10053000474B2546EB18944205D38B4201D2112339
:100540000AE03B4608E0934201D2142304E08B42C8
:1005500001D2102300E000230370F0BDF8B502289B
:1005600001D0032848D1324A136904210B43136197
:100570002C4A203A93895B085B0093810524102262
:10058000294E240702287578608A36D0104360828D
:10059000608A084360827068C01C870801F0E0F838
:1005A000608A1021084360822A487F1E0762EFF3A9
:1005B0001080012181F310882188802291432180BD
:1005C000002800D0012080F3108814484089C0051D
:1005D0000AD501F0B3F80B2000F0B4FD0F486030ED
:1005E000018801221143018003205CF78DF8002867
:1005F00006D00120F0702583F8BD90436082F3E7B8
:100600000020F07030780540F5E7000054BAFC0790
:10061000887DFC07B4BAFC0700330050200000506E
:10062000A000FC0720030050487CFC0758B9FC07D9
:1006300000ED00E0487CFC070070FC070040FC0770
:100640001001FC07103E0000000004F88045FC0784
:100650000C0800000000F407704770B50D46002438
:1006600042F74DF92855641CE4B2202CF8D3002041
:1006700070BD10B55EF72EFD10BD10B55EF733FDF1
:1006800010BD0749884200D000BE05210907488AED
:10069000012280088000D203104348827047000086
:1006A000111111111F480178002902D080214170D9
:1006B00070471D49002008701C49C87070471949CF
:1006C0000A78002A03D000280CD002200BE0002872
:1006D00001D0022000E001201349087013490120D5
:1006E000C87070470120803048707047002805D0DE
:1006F000012804D0022804D10120E0E7D2E700203D
:10070000FBE77047084900200978002904D0012937
:1007100003D0022900D10220704701207047014810
:10072000C0787047507CFC07B4BAFC0754BAFC0789
:1007300010B5FE4CA178002921D0FD49002803D036
:1007400008884007FCD402E00888400717D4CA880C
:10075000888811040A180020A070F648002350432E
:10076000800B401C4008E0611F204006492162F7D1
:1007700077FEE162A06264214843000CA06110BDD5
:10078000EB49488008880322104308800888042227
:1007900010430880E54901208870704770B5052036
:1007A0000007018930229143018101898022114390
:1007B00001810189082211430181DF490A88520819
:1007C00052000A80438918229343438104894023BD
:1007D0001C430481048A0425AC430482848AA40750
:1007E000FCD5D24DAA246C61CD8801240F26360297
:1007F000B5430B263602AD19CD80CD882543CD807B
:1008000044899443083444814A88520852004A80FB
:100810000189994301810120800701688215914374
:100820000160C64801683F22520291434214891870
:100830000160016802031143016070BD10B5BB493E
:100840000122D203C969904205D303F0B5F88905A6
:10085000800A084310BD4843800A10BDEEE710B57A
:10086000B24989694843B649401849005EF7CAFB56
:1008700010BDF4E770B500F0EEFB0446FFF7F9FF9A
:10088000AA4D288120463C30FFF7F3FFAD49001DFB
:1008900088602A891018C01DAB4A48601278022A65
:1008A00001D111304860FFF7D9FFA849401880B244
:1008B0005CF734FE70BDF0B5A54985B00120C86372
:1008C000C86B0028FCD101208007C069974C2169C2
:1008D000884201D2002121611922411AD20191429C
:1008E0002AD320619B48018803914188029187881F
:1008F000C688994903C900900191684600F079FEC5
:1009000000F0A1FE0546012020567F280CD0281AB1
:1009100040B2002801DA404240B2082805DBE06816
:10092000401CE06001F061FB65708A4802994180DB
:100930008780C6800399018005B0F0BD10B5874857
:1009400001240078C00705D08548417D01290CD1DC
:10095000007D06E005205CF793FA002805D1814868
:10096000807A002802D0032800D00024204610BD41
:1009700010B57D4900200860FFF77CFF012080074B
:10098000016B49004908016310BD08B567498880BB
:1009900069498A88520852008A8000220092009990
:1009A000491C00911429FADB052109074B899B0892
:1009B0009B005B1C4B814B895B06FCD54880E1208A
:1009C000C0000092521C00928242FBDB48898008E2
:1009D0008000488148890006FCD508BDF8B5634809
:1009E0000826068000F0F4FB614CA188684601806F
:1009F0000088C046C04668460088042398433ED01D
:100A00000020A0805A48203001880F229202114312
:100A10000180494A2032518A31435182464960312E
:100A20000C880625AC430C800588CC012543058045
:100A3000558AA5435582948A0E25AC43A41D948201
:100A40003D4C6589EF054B4D0F881DD5AF43150112
:100A50007D190D800D880F022D052D0DED190D80CE
:100A600005883543058005889D4305800D886D0800
:100A70006D000D8001884025A943018020E0208A77
:100A8000400840002082BDE7AF4303256D027D1979
:100A90000D800D880F273F033D430D800588B5432A
:100AA000058005889D430580958A03267602B54317
:100AB00095820D88012635430D8061894907FCD553
:100AC0000188032529430180558A60218D43203503
:100AD000558282888A43203282800120134E052568
:100AE00030702D07E88AC02188438030E882208A50
:100AF000000A00022082208B1C21884308302083BA
:100B00001D480380A8880121C9028843A8804801A4
:100B10001A49086000F024FE022000F0E6FD184C9F
:100B20002069C0B2AA2870D001202BE0587CFC07B5
:100B3000001600501111010020000050000200407A
:100B400020A10700203FFC07B4BAFC07E204000024
:100B5000C000004000150050843CFC07FDB9FC07B4
:100B600088BDFC0750BDFC07A8B9FC070033005046
:100B700000030050000F00000002005080E200E07F
:100B8000C07FF80729880C22914380000143298007
:100B9000C046C046224800F087FA00F0FBF800F09B
:100BA00057FA002833D000F053FAFFF7EEFE7F200B
:100BB0007070A06A1B49086000F002FE00F038F86F
:100BC00001F073FD012041F7A0FEFFF7E7FD164895
:100BD000006841F73FFB15490020C87008710120EB
:100BE0008007016882151143016000F02FFE1E206E
:100BF000FFF7C6FD0120FFF79BFDFFF753FD01F056
:100C000016FEFFF7B5FEF8BDFFE703208DE720696C
:100C1000C0B2AA2801D06E20C7E78020C5E7000037
:100C2000787CFC07203FFC074CB9FC0754BAFC0752
:100C300070B53748354E00683649356892B08842FD
:100C400005D005225202344934485EF755FA344C37
:100C5000344920465EF769FA0721334809025EF7F6
:100C600064FA356002F0BCFB314930480860314815
:100C7000002505803022304930485EF73DFA2B4987
:100C80000822083903C91191109010A92C485EF769
:100C900033FA26494022283168465EF72DFA402271
:100CA000694628485EF728FA01F048FD26490920E0
:100CB0000870274A25491160274A26491160284AA9
:100CC00026491160274A0A2111702749274A0D70C9
:100CD0003221117026490860264903200860264900
:100CE0000B20086025490C20086025490D2008606C
:100CF00024490E200860FF2023490730086023495B
:100D000008602348046012B070BD00005CBAFC07A4
:100D10009CB8FC076587341200B0FC07F87EFC071E
:100D2000009CFC07D01A000000B9FC07943CFC07AB
:100D300060BAFC07887CFC077CFCF10700BAFC0762
:100D4000DAB9FC07B0BCFC07FDB9FC07603FF2074D
:100D500050B9FC071C3AFC0754B9FC07983BFC0748
:100D600058B9FC07B0B9FC07B1B9FC07D9B9FC0701
:100D70005CB9FC0760B9FC0764B9FC0768B9FC07FB
:100D80006CB9FC0770B9FC0748B9FC0744B9FC070B
:100D90004CB9FC07F0B5B84C89B0002020766076DD
:100DA00003900120C046C046B4480169B44881425E
:100DB00002D0C01709B0F0BDB04F0425403FE8197C
:100DC000016D0191090F092910D0012201989207A4
:100DD00090427AD3AB4A904277D8AB4908358842E3
:100DE00074D1E819C16CA9484180A6E0019A019923
:100DF0001204C9B2160E112935D007DC0B005EF7BC
:100E0000CFF9087474747474740D1F7412390B0064
:100E10005EF7C6F9063A4B5D6B60656B207EB200EB
:100E2000C1009548403808189449143169185EF794
:100E300063F9207E8019C0B22076042854D854E08B
:100E4000607EB200C1008C48403808188B491030D1
:100E5000143169185EF750F9607E8019C0B260766F
:100E60000C2841D841E0416D89B20291406D000CDF
:100E700001460490029800F0F1F8A08004990298CD
:100E800000F0F4F8E08030E0416D89B20491406DEB
:100E9000000C01460290049800F0E0F820810299CD
:100EA000049800F0E3F860811FE0039805A9800032
:100EB00040187249B200143169185EF71DF90398A1
:100EC0008019039002280FD80FE02BE010E0406D4E
:100ED00060820AE0416D68484038016405E0406D79
:100EE0000004000CA08200D100BEB00045194DE006
:100EF00065492639884203D1E819C06CE0821CE0BC
:100F00006149091F884204D1E819C06C5F49888093
:100F100013E05D49083988420FD1E819C06C5B497C
:100F2000C8800AE007292ED008292FD00A292DD001
:100F300006292BD0401C07D000BE5048103029187D
:100F40005348814200D23AE70598A0810698050CE3
:100F500086B22946304600F081F8E08129463046C5
:100F600000F084F82082207EC10700D000BE400837
:100F70002076607EC10700D000BE40086076A18A5E
:100F8000002905D007E00020C046C0462D1DD4E74B
:100F90007D21C900A182042800D000BE002009E7FD
:100FA000F8B5354C0025403C334F24E0EE00A05905
:100FB000384988421AD1301900904068800A4004AC
:100FC00014D001F0F7FA092810D9009803224068DC
:100FD0001202014609041040890E0843A159086015
:100FE00000982D494068C001C00D02E030194068EA
:100FF000A15908606D1C387EA842D7DCF8BDF8B551
:101000001D4C0025403C2746403717E0E8000619F4
:101010002248316981420DD101F0CCFA092809D961
:101020001F49706908401C4909884904084331690F
:10103000086002E03069716901606D1C787EA84229
:10104000E4DCF8BD0C48808970470B48408A704743
:101050000948C08A70470848808A7047081A010406
:10106000890C40180F49401800B27047C200801820
:10107000401A0004C0147047CC7CFC07C07EF807FF
:10108000A5A5A5A54C42005028000050A000FC07D3
:10109000C07FF8074C1000402C3FFC073830004060
:1010A000FFFF01FC0100FFFF10B5062201495EF7BA
:1010B00023F810BDD47FF8070520000701883022EF
:1010C00011430180018803221143018070470520EC
:1010D0000007018830229143018001888908890036
:1010E0000180704736490A8B03231B029A43000292
:1010F00002430A83704733498A8A03235B029A4377
:10110000C3085B021A438A828A8A0723DB024007EC
:101110009A43800C02438A822A4840300188012287
:10112000114301802748203841894907FCD5704781
:101130002448818A808A4905890F8004400FC900AC
:10114000081870471F498A8A03235B029A43C30821
:101150005B021A438A828A8A0723DB0240079A438A
:10116000800C02438A82704710B504461548203827
:101170004089C00502D40120C04310BD00F0DBFA55
:10118000002806D0FFF7D4FFA04202D90020C043B8
:1011900010BD0C48408AC00408D40B4800880007E2
:1011A00004D4082C02D20420C04310BD07480121FA
:1011B000047041702046FFF79EFF002010BD000024
:1011C000203000504000005020030050303FFC070A
:1011D000F0B585B00026884C02960298302148432D
:1011E000009600190099890046500099491C009109
:1011F0000C29F7DB0298401C02900128EDDB01F07E
:10120000E7F97D4D0021083D2960696001270296BC
:1012100000200090029979484900465A00993846C2
:10122000884080B206421DD0029830214843009980
:10123000001989004058411C1BD000280DD0C1174F
:10124000009A5DF79DFF029A12015DF799FF2A68E7
:101250006B6810431943286069600098401C009037
:101260000C28DBDB0298401C02900128D0DB05B083
:10127000F0BD00BEE3E7F8B5164605460C460A4643
:101280001F46012000215DF77BFF2A015DF778FFF3
:10129000594B083B1A685B6810401940084300D15D
:1012A00000BE680156494018610008183E43C680D8
:1012B000F8BD70B505460C460A46012000215DF7D1
:1012C0005FFF2A015DF75CFF4B4A083A13685268DA
:1012D00018401140084300D100BE68014849401839
:1012E0000121A140818070BD70B505460C460A46BB
:1012F000012000215DF744FF2A015DF741FF3E4ACE
:10130000083A1368526818401140084300D100BEE3
:1013100068013B4940180121A140418070BDFFB5E3
:1013200081B00C4605460A461F46012000210A9E50
:101330005DF726FF2A015DF723FF2F4B083B1A6854
:101340005B6810401940084300D100BE002E2146C2
:10135000284602D0FFF7C8FF01E0FFF7AAFF3B468F
:1013600021462846039AFFF786FF80E770B50124DF
:1013700021460A3881400D4688B200F02CF884409E
:101380002048C189A9430C43C48170BD10B50446EF
:101390000A3804280BD82046FFF7E8FF1649A000BA
:1013A000303140188038806D002801D0804710BD52
:1013B000002CFCDBE106C90E0120884012490860C0
:1013C00010BD0A20E2E70B20E0E70C20DEE70D204D
:1013D000DCE70E20DAE700280BD0411E4840C003AE
:1013E000010C002002E04908401C80B20029FAD11B
:1013F0007047102070470000F07CFC07FC3CFC07A5
:10140000003000500014005080E200E010B5FFF7FB
:101410005EFE0522120790882049000504D5204B66
:101420001C880520A04311D09088C3061D481FD5F5
:101430008388DB071CD003881B0619D50122828014
:10144000028880239A430280486822E01888042298
:101450001043188018884008400018800C68002C41
:1014600005D00220185E995E0A229A5EA04710BD40
:101470009288D206FBD582889207F8D50288D205D9
:10148000F5D5022282800288FF2301339A4302802D
:1014900088680028EBD0804710BD0000347DFC0731
:1014A00000020050000100507D4801880122120313
:1014B0009143018070477A48018801221203114349
:1014C0000180642000BF401EFCD170477449CA8867
:1014D000D208D2000243CA8070477149CA8870237B
:1014E0009A4300010243CA807047F8B5050049D00D
:1014F0006B4C297820884022904389010843208042
:101500006878FFF7EAFF2878002803D16878000997
:10151000FFF7DCFFE87804260128208833D0B043A9
:1015200020802879A1880002C9B20143A180E08807
:1015300001274006400F7F02042826D0FFF7B4FFA2
:10154000A8780F2800D900BE61880F22520291436B
:1015500040020143618068796188890889000143FC
:101560006180A879012820883BD0B8432080E879A1
:10157000072800D900BE6188FF22C1329143800153
:1015800001436180F8BD3043CAE7FFF75EFD45497E
:101590000028088001D144480880FFF78CFF20888C
:1015A0003843208021884020814301432180608886
:1015B000304360806088C004C00C608060880F2168
:1015C00049028843084360806088FF21C131884315
:1015D000FF2181310843608060888008800060803E
:1015E000F8BD3843C2E72E4801880122114301802B
:1015F000704770B505462A4C00202080212000014C
:1016000060804020A080FFF71DFDA081A18970208F
:1016100081434031A181062000F035F82846FFF7CC
:1016200064FFFFF7E0FF70BD1D48018802221143EF
:10163000018070471A490120C8811C4800680028B1
:1016400000D00047704710B5FFF7EEFF144801883F
:101650008907C90FFBD10121C181008A114A1449B0
:101660001288801A7D22D2005043002801DD4A10E2
:1016700002E0002801DA0F4A80185DF7D9FC8011DA
:10168000193040B210BD002809DBC106C90E012087
:10169000884009490860BFF34F8FBFF36F8F7047D1
:1016A00000150050323FFC0740760000407DFC07EB
:1016B000AA0500002BFDFFFF80E100E010B5044605
:1016C000FFF736FDA04202D22046FFF73BFD584807
:1016D0000188C90708D101880122114301805448BB
:1016E000603841894907FCD510BD38B5514C0546D5
:1016F00020684107490F684601700078854219D07B
:101700004B4860384089C0050CD5A81E03005DF722
:1017100047FD05040604040409000B2000E0132023
:10172000FFF7CCFF2068C008C00028432060606835
:101730004007FCD538BD4048007870473E4900203E
:1017400008707047052109070988090600D400BE02
:1017500080003A4909583748016139494161704769
:1017600010B5EFF31084012080F310883048603802
:101770004089C0050BD5304901200870FFF7D8FC1F
:10178000304908702A480088C007C00F48700520FB
:101790000007018880221143018026480168C9089A
:1017A000C900016041684907FCD50320FFF7CAFF63
:1017B000002C03D0012080F3108810BD0020FAE730
:1017C00070B5EFF31084012080F31088052109071C
:1017D000088880221043088016480368DB08DB0075
:1017E000036043685B07FCD5174B0361144B4361EF
:1017F0000888904308800E4860384089C0050ED59F
:101800000D4900200F4D08702878FFF79BFC687881
:10181000002804D106480188490849000180002CAD
:1018200003D0012080F3108870BD0020FAE700008B
:10183000800000500000F407447DFC07003DFC07D9
:10184000090404A4303FFC070F009909F8B51D48AE
:101850001B4D0068A84231D0FF26C1360121304619
:101860005AF7BAFF04461848016818480A0A017076
:1018700042700A0C8270090EC1700022A35CFF2125
:10188000C0319F07891ABF0F615CC75D794059401D
:10189000A154521CB242F1D30C481C222146001D17
:1018A0005FF7BEFB002800D000BE20465BF70FF8B4
:1018B0000648406841F729F802480560F8BD000075
:1018C000658734129CB8FC07203FFC07343FFC07B7
:1018D000544930B4884201D0012100E00021524A2D
:1018E0004901891808E0838ADB07DB0F12D00388DF
:1018F000541C8D68CC81AB54CA898B899A42F2D32F
:1019000082885208520082808A69002A02D0C889DF
:1019100030BC104730BC704710B5444800F001F8A7
:1019200010BDF8B53F4D404E044620890007000F1A
:10193000062826D009DC012840D002281DD0042822
:10194000F3D12046FFF7C4FFEFE7072828D00C2883
:10195000EBD1AC4201D0012000E00020400187190A
:101960002046FFF7B5FFA18849084900A180B96961
:101970000029DAD0F8898847D7E7204600F01FF819
:10198000D3E72046AC4201D0012100E0002149010B
:1019900089190A69002AC8D0818A9E2319400BE060
:1019A0002046AC4201D0012100E000214901891903
:1019B0000A69002AB9D001219047B6E7F8BD194954
:1019C00030B4884201D0012100E00021164A4901CB
:1019D00089180EE003891B069B0F032B1BD0838AFB
:1019E0009B06DB0F002B95D0531C0C68CB80A25CB0
:1019F0000280CA888B889A42ECD3828802239A4359
:101A00008280828880239A4382804A69002A81D01A
:101A1000888830BC10477C231B5A9B07DB0FE1E70B
:101A200078E7000000100050487DFC0700110050CE
:101A3000F8B50125AD07AC6B2046FEF70FFF7049E6
:101A4000704F4A68861800204860394630465DF776
:101A5000D9FA6D4948603A465043301A00D0381AD6
:101A600080B20860286B08218843084328636748D0
:101A7000046067480068002802D0A04200D200BE7F
:101A8000F8BD10B5FFF723FB052000074189890742
:101A900003D041898908890041810189802211434D
:101AA0000181018A042291430182818A8907FCD540
:101AB00000F0C4F8012080070169490700D500BE85
:101AC00001694907FCD510BD10B5524C0820208093
:101AD000FFF7F2FA20894007FCD4FFF7F8FA4E48E6
:101AE00005210088090748804C484D4C0088801E1D
:101AF000608007202080FFF7DFFA20884007FCD4B1
:101B0000FFF7BFFF10BDF8B546480168C90703D00D
:101B100001680222114301600168490204D501688D
:101B200001229205114301600127354EBD072C6942
:101B3000002C63D0200606D58020A8614BF7A7FEB5
:101B40001E20FEF71DFEA00703D50220A86147F75F
:101B50009CFD20070AD50820A86101F0EEFB0020BB
:101B600047F74CFD0420307000F01BFDE00505D563
:101B7000FF200130A861012047F740FDA00504D5F2
:101B800001204002A8614BF7EBFE600603D5402020
:101B9000A86147F72EFDE00603D51020A86146F79F
:101BA000EBF860071BD50420A8611A480189490891
:101BB000490001811C480078C00705D0002040F78B
:101BC000D1FD40F797FD01E040F77CFD5BF77CFC21
:101BD00040F736FD1E20FEF7D3FD00203070E007F1
:101BE00006D00120A8615BF78BFC4BF750FE3770E5
:101BF000A0069CD52020A86100BE98E7F8BD000093
:101C0000887DFC077102000040000040987DFC07C1
:101C1000907DFC07003300505C7CFC07607CFC0777
:101C20000016005000020040FDB9FC0710B540F757
:101C30004CFB6F4880686F49486010BD10B540F795
:101C400070FB6C486A494068886010BDF8B5002692
:101C500000F0CAF8684D009029790020022900D1CF
:101C6000009066490989C9070DD15AF792FC0028EE
:101C700009D0E87801260028FAD005273F07B88A5E
:101C8000C00701D00426ADE028880028FBD1FEF76C
:101C900046FD002806D15A48806A002802D000F08C
:101CA000A3F80090FEF7E6FDA97868465BF769FAAD
:101CB000002865D00124A4072069400660D4A978D3
:101CC00068464BF73BFF00285AD04DF7B9FE002875
:101CD00055D04CF735FB002851D0A97868465BF702
:101CE00050FA00284DD0206940064AD442488178F5
:101CF00068464BF723FF002843D00120FFF7F2F995
:101D00000099002906D0206AFF383938DA2801D82E
:101D1000491E00913B4802883B48016850183B4AE5
:101D20001060E26B920A92020A43E263E16B384A66
:101D30001140384A1568AA021143E163E16BC902F8
:101D4000C90A40050143E163334A00980426002193
:101D5000904200D300BE314B0CCB5DF77DF90903F7
:101D6000000D0843234A401E691C1060884200D1C0
:101D7000156021480079002810D001210FE00026CD
:101D800030E027480078C00705D0002040F7EAFC83
:101D900040F7B0FC26E040F795FC23E000211068F6
:101DA00047F7E2FD1F48C06A8047114D206B0004D1
:101DB000C00FFBD02868C005FCD528688024A0434C
:101DC00028600E484189462904D24622164B511AF2
:101DD00019604281FFF72AFF28680006FCD5388980
:101DE000A04338813046F8BD10480068406A70470B
:101DF00000020040907DFC0754BAFC0700330050FD
:101E000074BEFC07607CFC07283FFC07483FFC07CA
:101E1000FF03E0FF243FFC0740420F00807CFC07EB
:101E2000FDB9FC0758BFFC078C7DFC0758B9FC07BF
:101E3000002070477047704710B5282801D228202D
:101E400002E0E62800D9E620FF21F33148437D2156
:101E5000C9005DF7D7F88130C0B210BD7047704738
:101E600010B5022902D0012900D000BE032802D3F8
:101E7000FF2802D000BE022902D000F09BFB10BD5B
:101E80000C2010BD01218907086B0722104308634D
:101E90008C480168021391430160704710B502201D
:101EA000FFF720F9874801680203914301608648E3
:101EB00000214163416B1F22120491434213891890
:101EC000416301060868F0229043E030086010BDCD
:101ED00010B58AB07D4941627D4981627D49416189
:101EE000002430210C547C49C1627C4901607C494A
:101EF00001627C4941607C49C16100F03EFB72484F
:101F0000416B1F22120491434213891841636D48AB
:101F10000168C2129143016068460455641CE4B232
:101F2000282CFAD3014671482822006840305DF71A
:101F3000E3F8092000F03BFB00F03FFB002802D053
:101F4000012000F034FB00F019FBFFF729F8FFF740
:101F500056F800F0D5F800F058F8FFF79FFF00F0B2
:101F60000BFB00F083F800F01CFB0AB010BD10B5AD
:101F70005548416B1F221204914342138918416353
:101F800000060168C908C900016005200007018931
:101F900008221143018100F010FB002802D001202B
:101FA00000F005FB00F0EAFAFEF7FAFFFFF727F86A
:101FB00000F0A6F800F029F8FFF770FF00F035F800
:101FC00000F0EFFA10BD10B50446702248494948A8
:101FD0005DF792F847484830011B464810380183A6
:101FE00044495C31091B418310BD10B500F0C6FAAD
:101FF000FFF705F800F084F800F007F800F0BCFAED
:1020000000F023F800F0CDFA10BD2F4B10B540338F
:102010001868394C0102090EC2B20A3109040A32A9
:10202000204011430143196010BD344A118B3148DF
:10203000103083691B0C1B040B438361518BC269F5
:10204000120C12040A43C26170472C4A203A118BC9
:1020500028481030C3681B0C1B040B43C360518B12
:102060000269120C12040A430261704710B5FFF7AF
:10207000ECFFFFF7DAFF21482038018A1D481030B5
:102080008268120C12040A4382601C4A4032918812
:10209000036A1B0C1B040B430362D188426A120CB7
:1020A00012040A43426215494A88836A1B0C1B04C6
:1020B000134383628988C26A120C12040A43C26203
:1020C00010BD00000002004040000040311EFC072F
:1020D000351EFC07611EFC07851EFC07371EFC072A
:1020E0005D1EFC075F1EFC07391EFC074CB9FC0790
:1020F0001C3DFC07709CFC0700FF00FF20300040E7
:10210000F0B5FE48406B7F21090288430B2109028C
:102110004018FA494863086AF94980B24018F749FB
:102120000862886BF749012208405203F34980187E
:102130008863F2484030016903231B02194301619F
:10214000818B102421438183EC4820308188012435
:1021500021438180ED49EC480860ED4C20883F2107
:10216000090188432F21090140182080E8482038C0
:102170008169E84D490D490549198161C169E64DFB
:10218000294009256D024919C1614168E34D294083
:10219000E34D491941608168E24D2940E24D4919FA
:1021A0008160C168E14D2940E14D4919C160016973
:1021B000E04D2940E04D49190161E049C514097815
:1021C00009064919C1256D012943DD4D2960052501
:1021D000DC49AD020D816D1D8D81DA4920310D89FB
:1021E0002D0A2D0255350D818D25AD000D82D64D60
:1021F0008D82D64D0D83D44D0E3D8D83D349D14D67
:10220000C91D40352980D249A181C16BD14C2140E3
:10221000D14C0919C163FF20D04C6C302080CF48CD
:102220002030068B1F2149010B258E43AD01761905
:102230000683CA484030868809278E43BF01F619B5
:102240008680068915278E437F01F61906818689C7
:102250008E4371198181FF208D30A080BF4880306E
:102260000189E024A14319430181818B4909490176
:1022700019318183B2482030818B5B0199438918E1
:102280008183AF4880300168C908C900C91C01605A
:10229000AB49B34840314862F0BDA94908B50020B8
:1022A0008031C8620090401C0090FF28FBDDAD48E3
:1022B0000078AA49C006820D4031C8681F235B011F
:1022C00098431043C86008BDA7488C490068403156
:1022D00008608A488169890989011C3181618169A5
:1022E000C21391438161016B3F2212069143072281
:1022F000920689180163016B3F22920191430F22DC
:10230000D20189180163016B890989011E310163BA
:1023100070477A48C16949084900C16170478F48D0
:1023200008B54030C1688F4A8905C90E1170C1686F
:102330001F2252019143C160814901208871804868
:102340008030C16A03221143C16200200090401C0A
:102350000090FF28FBDD08BD08B57949022088718F
:1023600000200090401C00900B28FBDB08BD634858
:1023700041210177C1690322520291430215891854
:10238000C16170475D4840300168774A11600021A3
:10239000C94301605948816989098901816181695D
:1023A000C21391438161C169032252029143031513
:1023B000C918C161C169702399434031C161016B82
:1023C0003F231B0699430B235B06C9180163016B6E
:1023D0003F239B01994389180163016B8909890196
:1023E000183101637047F8B5554803274771434CCE
:1023F0006068C009C00114306060FFF7C3FF43206C
:102400002077FFF7A9FFFFF78AFF00252615009523
:102410000098401C0090B042FADB49490320487103
:10242000364880308068C705FF0DFFF736FF0095FE
:102430000098401C00901028FADBA0694002400A76
:10244000F9050843A061A06948490840B90108435B
:10245000A061FFF78CFFFFF77FFFFFF760FF00959C
:102460000098401C0090B042FADB354903204871C7
:10247000224880308068C705FF0DFFF70EFF0095EA
:102480000098401C00901028FADBA0694002400A26
:10249000F9050843A061A06934490840B90108431F
:1024A000A061FFF764FFFFF757FFFFF738FF0095C4
:1024B0000098401C0090B042FADB2149032048718B
:1024C0000E4880308068C605A069F60D4002400ABB
:1024D000F1050843A061A06924490840B1010843FF
:1024E000A061FFF716FFFFF7EFFEFFF7D6FE00959E
:1024F0000098401C00901028FADB39E000300040C2
:1025000000008888FF00FEFF59055C07800000403E
:102510002020004009581A00FEE1FFFFE0E0000023
:102520000809294900000303696A686C031FFFFF5B
:1025300070600000E0E0E0E00B0A0A089C7DFC0708
:102540000010004020130040340A00005108000031
:10255000070F00002F64E0FE101A06010012004071
:10256000500150011C3FFC074C3FFC073F80FFFF20
:10257000134846810120F8BD35E7704708B511487A
:102580000821017100210091009A521C0092102A2A
:10259000FADB0091491C00911029FBDB03214171FA
:1025A00008BD0848022181710021818070470649D9
:1025B00008707047044800787047034840787047B7
:1025C000503FFC07001000409C7DFC07704770479F
:1025D00070B5404800228169D243002901D01146DC
:1025E00000E00121CB178C0E9B0123438C018161FC
:1025F00039490D684E682C4333430C604B60436986
:10260000002B01D0144600E00124E317E50E5B0126
:102610002B4344610D6864014E682C4333430C60C6
:102620004B60C369002B01D0144600E00124E3177E
:10263000650EDB012B43C4610D68E4014E682C4339
:1026400033430C604B60036A002B00D1012202620D
:10265000D017130E000218430C6812024B68224375
:1026600018430A60486070BD38B5002403252D0268
:1026700002232A46062120460094FEF750FE00223F
:102680000123052110460094FEF749FE14232A4633
:10269000072100200094FEF742FE002213230821A8
:1026A00010460094FEF73BFE38BD10B51B20FEF728
:1026B0005BFD00F07FFE0322114602203FF7F6FF8C
:1026C000FFF7D2FF0548012182898A430A438281AC
:1026D00010BD0000F07CFC07E87CFC070003005004
:1026E000F0B413460246002528462C4C2C4E0AE036
:1026F000C700E75B9F4205D1C00000194468002C69
:1027000011D103E0401C3778B842F1DB0020254CA2
:10271000254E0DE0C700E75B9F4208D1C0000019BD
:102720004468002C07D0A446F0BC18466047401C03
:102730003778B842EEDB2846F0BC7047F8B5FF2288
:102740002D321A491A485CF7D7FC0020184B19495A
:10275000194C08E00C224243D5181219C4CAFF359F
:102760002D35C4C5401C0A789042F3DB0020134A83
:102770000CE00C780C2524186C43114E4543AD1920
:10278000E418E0CDFF342D34E0C4401C1478A0429E
:10279000EFDB0C481C21C3624185F8BDD03DFC072E
:1027A000E03DFC07A83DFC07B03DFC0738FBF10706
:1027B000A47DFC07CC3DFC07B43DFC07A43DFC0711
:1027C000983DFC0700BAFC0710B519467F2202238A
:1027D000520205485AF70EF9D121417000210170CB
:1027E0004CF700FF002010BD0108000010B519468D
:1027F000FD220223120210485AF7FCF89021417082
:10280000002101704CF7EEFE002010BD10B51946F6
:1028100003230A4A08485AF7EDF891214170FF2135
:102820008170002101704CF7DDFE002010BD10B555
:102830000020FDF75BFF10BD0108000001FD000056
:10284000F8B50746012000230246009019460320F0
:1028500046F7D8FD0446022180300170FF4DFE4846
:102860002A6843881146FF31F7310B8680884886F5
:10287000FB48066A0123DB069E431E430662FF32C5
:102880000020FF32383250829082D0821D20088290
:10289000F4484884F448C882F448088300204882F9
:1028A000384647F7EFF801462868FF30F730C28B0B
:1028B000920992010A43C283ED484168002088478B
:1028C000002C02D0204646F786F92046F8BDFFB519
:1028D0008BB0064616980027022821D00D98018853
:1028E0001498814278D37188084640383F2802D82E
:1028F000159853F783F90C98361D0088149A80199F
:102900000E995CF7F9FB0C980188149808180C993B
:1029100008800D9801881498081A0D9908805CE1C8
:1029200000200E9D079069782C78090221433180A0
:10293000E978AC780902214371808C46403904243F
:102940002D1D024603468E46402900D32878614655
:1029500004291FD0052914D0062918D070463F2815
:102960003DD8159853F74AF90006000E04D0C14827
:10297000008D0006C00F30D002230120BE4A002780
:1029800012E0697800290FD0BC4A17230CE0BC4A3A
:102990000F2309E0522802D0D22802D002E01420EE
:1029A00000E01520B74A1F23002A1AD0984218D2F7
:1029B000800010580490002813D000200890059043
:1029C00070884038402803D32878052430716D1C66
:1029D000701D00900498B5E0FEE03027F0E033274A
:1029E000EEE07088042872D10627E9E0522862D010
:1029F0000CDC4B283FD004DC41286AD0422858D157
:102A000011E04C2820D0502853D140E0632830D02A
:102A100004DC572818D061284BD19BE06C2864D087
:102A2000772846D109E00098297801700098641C45
:102A3000401CA4B26D1C009081E00498401C0490DE
:102A40000178089881427AD10098A41C401C410862
:102A50004900881C009068782A780002104308809A
:102A60000599AD1CA4B2002969D0089000200590FA
:102A700065E00120FBE71022294600985CF73CFB4B
:102A8000009810341030A4B21035009057E0204662
:102A900040301499039088420BD840222946009870
:102AA0005CF72AFB0098403000900398403584B2D0
:102AB00045E0342743E00822294600985CF71CFBD8
:102AC000009808340830A4B20835009037E068E078
:102AD000FFE70622294600985CF70EFB0098A41D2C
:102AE000801DA4B2AD1D009029E01498001B80B297
:102AF00003903088001B001D81B2012007900498CC
:102B0000401C04900098401C40084000009004982D
:102B1000007857281CD04228CBD100980170090AB0
:102B2000417000982946801C0090039A5CF7E4FAF3
:102B300003980399201884B20098401800900498D4
:102B4000401C0490007800281ED0002F17D01BE0F6
:102B50004908E2E71498001B81B200980391401CD9
:102B600040084000009001200A460790294600983E
:102B70005CF7C2FA0399601884B20098DDE70D99FA
:102B80000988A14200D331E70D980088A04208D3FC
:102B900004990978002904D10799002903D1A0429A
:102BA00001D034270CE00D99001B08800C98018897
:102BB0000098801B001F08180C99002F08800CD06B
:102BC0007088042809D0062807D04038402804D34C
:102BD0000E984079707100E0342738460FB0F0BD90
:102BE000FFB581B01F4616460C4610465AF748F905
:102BF00000257F2802D02189062909D03B4632468C
:102C00002146019853F78DFB0546284605B0F0BDD7
:102C1000C00601D50225F8E720780028F5D1300A52
:102C2000A11D3FF716FDF0E7F1B598B018983FF7F2
:102C30000EFF0446189805210079134A4006C00F7C
:102C4000099068460184618B08460A38904276D222
:102C5000E08A062873D319E030BCFC074CB9FC07A6
:102C6000C000004010800000294100007671000083
:102C700058BFFC0748BEFC073803F2074003F207C1
:102C80009C03F207D803F207770C00001922D20147
:102C9000904254D8228BFF23F5339A424FD8521CCE
:102CA0009300D2184243521C0A23521059438A42BD
:102CB00045DC217F00290CD1617F002909D1A17F4A
:102CC000002906D1E17F002903D12021095DC90631
:102CD00035D0274620377978C906C90E491F0C29F7
:102CE0002DD2A18A81422AD8E17C002927D0421E18
:102CF000082A01D9082000E0401E81421FD86846FA
:102D000043F766FF00281AD1FE4D062228622146AD
:102D10000BA85CF7F1F9A8792E46803E00287DD0FB
:102D20006079800901280BD00BA809994AF71FFA8E
:102D3000010003D03820405C002870D09CE009E1FD
:102D4000F06A807A012808D0042806D00BA84AF738
:102D50007BFA286200284ED054E0686A06220BA94C
:102D600032305CF7EDF9002806D00BA84AF76CFA70
:102D70002862002802D012E0686AF9E700210BA857
:102D80004AF778FA2862F16A897A012905D18B0716
:102D90001A6849068A430A431A60002811D0F16A6A
:102DA000286A0622253010315CF7CAF9002808D1BC
:102DB000286AF16A2030C07AC97B884201D1286A2A
:102DC0001EE0D148D1490088C96880B2062250432C
:102DD00008183FF741FE014614A8062202305CF7AE
:102DE0008BF913AA00213C2040F703F90121B06DB3
:102DF00045F72AFBAAE011A90BA84AF73BFA28627B
:102E0000002839D001460A9006220FA825315CF728
:102E100073F90A9908AA2031C97A01E042E025E055
:102E20000FA84AF787F8002812D0286A2030C07A05
:102E3000002809D16846B649008C48F7EEFF08AA79
:102E40000121B3484AF776F868460BA9008C0AE0DE
:102E500008AA012111A84AF76DF800280CD0296AA8
:102E60006846008C323148F7EEFF05E00A18527DC3
:102E7000002A08D010286DDBF06A407A022806D0BC
:102E8000032804D00EE0401C1028EFDBF4E768466E
:102E9000008C052806D308AA0BA809994AF74AF816
:102EA000002857D00022694620464AF7ECF800284F
:102EB00050D1F06A407A02280BD0032809D00023B1
:102EC000684602880BA809994AF7FEF8002802D044
:102ED0002FE00123F4E7E18A68460181218B4181DB
:102EE000618B8181787806224109684681757878FE
:102EF000C106C90E6846417521460E305CF7FCF8E4
:102F0000189800794006C10F68460175038821466C
:102F100002A8B26D44F73EFE0146B06502A840F734
:102F2000B6F80020B065214668461C31008843F79A
:102F3000A2FE46F721FF734C2034207A002805D0EA
:102F4000002109205AF7DFF80020207200210846EE
:102F500059F781FF19B0F0BDF8B56E4C06468500F3
:102F60000F4660594C21095C24290ED1406910227A
:102F7000791D2E305CF7C0F8615925204031087367
:102F800000221146304651F78CFF60594C21095CF4
:102F90000C291FD140691022791D2E305CF7ACF846
:102FA00060595F214069095C09072DD401462E3123
:102FB00010221E305CF7C4F800280CD0605909219B
:102FC00040300173304652F789FC014600223046FA
:102FD00051F7E6FAF8BD0421684601706A460521FA
:102FE000304651F787FC6846017860200143684607
:102FF0000170304652F772FC0146684602780123A0
:10300000304651F7E2FBF8BD304652F767FC012825
:1030100009D0605907214030017300221146304623
:1030200051F73FFFF8BD615900204969C0318871EF
:1030300060590421426930461E3251F75BFC6059E9
:1030400041694031897F002907D01A21403001733E
:103050000021304651F7AFFFF8BD1B21403001730E
:10306000304651F7FDFFF8BDF8B52A4C05468600FD
:10307000A0594C22125C192A11D140224D30491D11
:103080005CF73AF8A059402223494D305CF758F8D4
:10309000002805D020492846203959F7BCF9F8BD49
:1030A0000B21684601706A460521284651F722FC2B
:1030B000684601786020014368460170284652F74F
:1030C0000DFC0146684602780123284651F77DFB36
:1030D000F8BDFFB581B003980C46060A002559F7E4
:1030E000CFFE002827D0132825D0142823D00B4842
:1030F000B700C0592030407BC00637D5039859F738
:10310000BFFE0DE030BCFC0768B9FC0760BBFC07E4
:1031100050F5F1073CBEFC07FCBDFC0778BBFC0783
:1031200015280CD0A0793FF785FC304644F720FDE8
:10313000032806D015E0A0793FF77CFC1FE00225AC
:103140001DE0A848C0592030407B400704D53D21F0
:10315000304640F76DF904E03D220021304640F74B
:1031600076F93D21304643F74BFD08E02046103804
:103170009D490181468120464CF734FA01252846B5
:1031800044E5F8B510460D46140A59F779FE0100DA
:1031900030D09448A200835801271E8BBF023E43C3
:1031A0001E83132926D0142924D0152911D0805824
:1031B0002D21095C0123CA06002A0CDA0246A0323E
:1031C000967D002E07D093753D21204643F718FDCC
:1031D00010E00220F8BD090703D50021A030817559
:1031E000F7E7A0308375204640F7A2FE2946204627
:1031F00040F7D6FE0020F8BDFFB581B01546170A8E
:10320000104659F73DFE002837D0132835D0142832
:1032100033D0290A8C00734E152815D0FF2029467B
:10322000033059F770FF30592D21095CC90603D5C9
:10323000A030C07D00280DD03D026D1CA8B259F70A
:103240001FFE19280BD00EE030590121A030C175A6
:103250000220DBE43D21384643F7D2FC0DE0A8B262
:10326000012159F7F8FD30590122018B5202914397
:1032700001833846029940F793FE0020C6E4F0B57A
:1032800058498700C959002680314A8C8B8C1B2AEB
:1032900000D21B228C8B944200D222468A849A420E
:1032A00000D001260B8CCD8C1B2B00D21B23CC8B8A
:1032B0009C4200D22346CB84AB4200D001260B8E29
:1032C000CD8D9C46FF2349339D4201D21C4600E030
:1032D0002C460D8DA54200D325460D86654500D0B0
:1032E00001264C8EA4468C8D9C4200D21C464B8DF0
:1032F000A34200D21C464C86644500D00126EB0850
:103300000B3B9BB29A4200D213468B86522335491F
:103310005843364BCA591C688032D28C0419FF348A
:10332000D2B201342286C9591A6880318018FF3020
:10333000498E013041863046F0BD2D48522200684A
:1033400064308188C37E5143284A12688918FF225D
:103350005F32525AFF31120AD21A01310B8CD2B2AB
:10336000DB0B09D00B8C5B045B0C0B84002A03D1B4
:103370008088204A012111547047FFB51746140A6E
:1033800081B0184A0298A100515840780026194D82
:10339000002907D0295D002905D0002803D1204647
:1033A00041F7AAFA2E553A46049B0299019842F732
:1033B00034FA2BE410B518220F4910485BF79CFE35
:1033C0000D4B0F480C3B0ECB0EC00C480D49A030E6
:1033D00001600D49416009490C482039086010BD61
:1033E0007047000078BBFC07060800004CB9FC07DA
:1033F00084BBFC07F47EFC07F03DFC07200008407E
:10340000C000FC070459F007490C00BF070010007A
:1034100010B50F49032059F7ECFC0021032059F7A0
:103420001AFD10BD10B5044601230A4A00210A48BE
:1034300059F7E0FA09498C4201D1032103E0084918
:103440008C4201D1002101704CF7CCF810BD000076
:10345000083EFC0711FC000001080000A5A5A5A579
:10346000C3C3C3C310B50C460123FE4A0021FE4866
:1034700059F7C0FAFD4A21781170002101704CF70C
:10348000B1F8002010BD10B5F64A0C460123521EBB
:103490000021F54859F7AEFAF54A2178117000215C
:1034A00001704CF79FF8002010BD10B5ED4A0C4696
:1034B0000123921E0021EC4859F79CFAED49A2889D
:1034C0004A800A462388403AD387E2888A80628805
:1034D0000A80002101704CF785F8002010BD10B55E
:1034E0001A4682230021E04859F784FA112101701D
:1034F0004CF778F8002010BDDA4A10B50123413AA4
:103500000021D94859F776FA112101704CF76AF871
:10351000002010BDD34A10B50123403A0021D24803
:1035200059F768FA112101704CF75CF8002010BDC2
:1035300010B51A4602230021CB4859F75BFA112136
:1035400001704CF74FF8002010BD10B51A4601234A
:103550000021C54859F74EFA112101704CF742F885
:10356000002010BD10B51A4601230021BE4859F7AE
:1035700041FA112101704CF735F8002010BD10B54B
:103580001A4682230021B84859F734FA11210170F4
:103590004CF728F8002010BD10B51A4682230021F0
:1035A000B14859F727FA00214170112101704CF7F9
:1035B00019F8002010BD10B51A4601230021AA48B1
:1035C00059F718FA112101704CF70CF8002010BDC2
:1035D000A44A10B50823333A0021A34859F70AFA40
:1035E0000446031DC21C811C401C58F7DBFF01462A
:1035F000002000290BD0112121706070A070E070B4
:10360000A080E08020464BF7EDFF002010BD207029
:10361000F7E77FB50846103859F731FA59F7D7F967
:1036200000246D460390204659F7CBF961004919F3
:10363000641CE4B24880042CF5D38A4A1023313A42
:103640000021894859F7D6F96D461ECD1EC00021CC
:10365000103801704BF7C6FF012004B070BDF8B5FB
:10366000804A0F4608230A3A00217F4859F7C2F9D9
:10367000814D0446286B6E12B043304328637F4966
:103680003888496A88476060286BB0430021286306
:1036900038886080217020464BF7A4FF0020F8BDD9
:1036A000F8B5704A0D460423093A00216E4859F7CF
:1036B000A1F9714E0446306B7712B843384330633A
:1036C0006E4A2888926A69689047306BB843002137
:1036D000306328886080217020464BF783FF0020EC
:1036E000F8BD70B518460D465E4A01460123323AD0
:1036F0005D4859F77FF904462878002802D0012850
:1037000005D101E05E4800E05E483FF72FF8122047
:10371000207020464BF766FF002070BD10B518469C
:103720000C46504A01460823133A4F4859F762F9AC
:103730002188012292078918096841602188418007
:10374000002101704BF74EFF002010BD10B5184648
:103750000C46444A01460423123A434859F74AF9B1
:10376000228801239B07D21861681160218841805B
:10377000002101704BF736FF002010BD10B51C462C
:10378000084649F749FC374A0123113A2146364891
:1037900059F730F9002101704BF724FF002010BDCC
:1037A00070B50C8818461646032C00D30324CA783B
:1037B0008B78150252225443334A1D431368E31891
:1037C000FF3301335D830B7911686118FF310131DB
:1037D0008A8B120A12021A438A83224A0146012363
:1037E0000E3A214859F706F9002101704BF7FAFE0D
:1037F0000021304659F72FFB002070BD10B58878A6
:103800001C46002801D0012200E000220888114651
:1038100043F73AFA134A01230D3A2146124859F761
:10382000E9F8002101704BF7DDFE002010BD70B5F6
:1038300018460C460B4A014601230C3A0A4859F730
:10384000D9F8227852214A430F4900230D685219B2
:10385000FF3241325382227852256A430D68521951
:10386000FF3213E043FC000001080000B0B9FC0780
:10387000D9B9FC0730BCFC074000004058BFFC072A
:10388000C3C3C3C3A5A5A5A54CB9FC074132938208
:1038900022785224096862435118FF314131CB82AA
:1038A000002101704BF79EFE002070BD70B51846D8
:1038B0000C4601460123334A334859F79BF82278D6
:1038C00052214A43314900230D685219FF324132D7
:1038D0009381227852256A430D685219FF32413292
:1038E000D38122785224096862435118FF31413153
:1038F0000B82002101704BF775FE002070BD70B582
:10390000184616460D461F4A01460123D21C1E4882
:1039100059F770F804462888032800D3032045F798
:103920006FF9002805D000212170A9786430C17793
:1039300001E01220207020464BF754FE0021304653
:1039400059F789FA002070BDF8B50E4610491C469B
:1039500015460020C2008A5AA24209D1C000401870
:103960004768002F07D02A4631461846B84702E07C
:10397000401C1928EED3224631462846FEF7B0FEF9
:10398000F8BD000038FC0000010800004CB9FC073D
:10399000183EFC07064C0125064E05E0E36807CCFF
:1039A0002B430C3C98471034B442F7D3FCF7B4FBDC
:1039B000FC3EFC071C3FFC07F8B5040C8BB2264606
:1039C00082B25E430D0C1046370C58433604801902
:1039D0000021794116466E43370C3604801979412F
:1039E00026466E438919F8BD02E008C8121F08C1B7
:1039F000002AFAD170477047002001E001C1121F70
:103A0000002AFBD17047F401080070CAEA80D00791
:103A100006406432063AFC07787CFC07D11EFC079E
:103A20006F1FFC0793DEF007F1DEF007F9DEF00709
:103A300049DFF00761DFF00777DFF00799DFF00774
:103A400019E3F007BDE5F007FDE3F0071DE4F0071B
:103A50003DE4F0077BE4F0078BE4F007F5F9F007AD
:103A6000B1F7F007CFF7F007EBF7F00705F8F0072D
:103A700019F8F00797F8F007AFF8F007DFCDF10776
:103A800067D0F107DBB9F007CD0DF207B10EF207F1
:103A9000AD0EF207A90EF2078D21F0078306FC0791
:103AA000311AFC077109FC077308FC075D08FC0765
:103AB000B57EF007837DF0074128FC07599EF1078A
:103AC000634CF107CD25FC07D110F207CF25FC0789
:103AD000B111F2074112F2077912F207000000005B
:103AE0001134FC072534FC07B9C6F007D592F1075D
:103AF000CF28FC075F9DF1075F9CF107E12BFC07D6
:103B0000EB72F107B922F1076B04F1075906FC07C4
:103B10002BA4F007F1D2F0075FBDF007D5BDF00789
:103B200085BEF0077F32FC07752EF0071581F00780
:103B3000DF7FF0070937F007000000007306FC077D
:103B40007B06FC075B06FC07F3C3F10775C4F107AE
:103B500003C5F107C71FFC070000000000000000BC
:103B60000000000000000000000000000000000055
:103B70000000000000000000000000000000000045
:103B80000000000000000000000000000000000035
:103B90000000000000000000050000008045FC0758
:103BA000000800000483FC0704080000F87EFC07FE
:103BB00000040000148BFC07900B000020030000A1
:103BC00000A60E0005000000D20000003200000038
:103BD0003C000000010000000100000002000000A5
:103BE00002000000040000000300000006000000C6
:103BF00000000000020000000200000000000000C1
:103C000000000000030000000300000005000000A9
:103C100005000000060000000A0000000A00000085
:103C2000C8000000B80B000002000000B80B000044
:103C3000B80B000010000000D4010000CC0100000F
:103C4000700200006A000000040000000300000091
:103C5000200000000A00000001000000E204000053
:103C60008A020000DC050000AF000000143AFC07E7
:103C700000000000000000008C3DFC070000000078
:103C80000000000001040000000000003F000000F0
:103C90000000000001000001D330FC0701001D01FD
:103CA0008331FC0701001E01F931FC07010000020D
:103CB0007B33FC07000000000000000020008000B3
:103CC00000C0000000008400000028220000000066
:103CD0000000040000F7FFFF7F00000030F0FF0F3E
:103CE00000000000000400000000000000000000D0
:103CF000000000000000000000000000FF0F0000B6
:103D00000100990903009909070099090F00990911
:103D10001F1099092F2099095F51990908000490F3
:103D20000000000000000000030005D08B0035F00B
:103D300010005CF0000010B0000018B000001AB0D5
:103D4000030051F0000038B000003AB0000064B049
:103D5000000066B0000022B0000024B0010005D0D1
:103D6000000000000A00008008030490000004F036
:103D7000030006D0000000000A0000800803049041
:103D8000000004F0030006D0000000000000000066
:103D9000000000000000000000FE0700F43EFC07E9
:103DA000F03EFC070100000000FE0000C927FC07F0
:103DB0000100000000FD0700F43EFC07F03EFC0798
:103DC00001FD0700F43EFC07F83EFC07020000007E
:103DD00000FD0000ED27FC0701FD00000D28FC0799
:103DE00002000000292CFC07592FFC076930FC0752
:103DF000F99DF00700000000E3A1F10700000000BA
:103E00004FA4F1070000000000000000E83EFC079E
:103E10007A3FFC070100010001FC0000DF34FC07D1
:103E200002FC0000F934FC0703FC00001535FC0718
:103E300005FC00003135FC0706FC00004B35FC0793
:103E400007FC00006535FC0708FC00007F35FC0717
:103E500009FC00009935FC070AFC0000B735FC0797
:103E600010FC0000D135FC0739FC00005F36FC0770
:103E70003AFC0000A136FC0711FC0000E336FC0709
:103E800030FC00001D37FC0731FC00004D37FC07FB
:103E900032FC00007D37FC0735FC0000A137FC0731
:103EA00036FC0000FD37FC0737FC00002F38FC070C
:103EB00038FC0000AD38FC073BFC0000FF38FC0775
:103EC00012FC00001336FC0741FC0000AB34FC0779
:103ED00042FC00008734FC0743FC00006534FC070B
:103EE000050800004939FC07E03EFC07010000001E
:103EF000424200004200000033420000203FFC0725
:103F0000203FFC0760060000F839FC07487CFC07EE
:103F1000487CFC07B0020000F839FC070E000000E6
:0400000507FC0111E2
:00000001FF
